:100000000C942A000C9447000C9447000C94470071
:100010000C9447000C9447000C9447000C94470044
:100020000C9447000C9447000C9447000C94470034
:100030000C9447000C9447000C9447000C94470024
:100040000C9447000C9447000C9447000C94470014
:100050000C94470011241FBECFE5D8E0DEBFCDBF12
:1000600010E0A0E6B0E0EEEDF5E002C005900D92E4
:10007000A836B107D9F710E0A8E6B0E001C01D929C
:10008000AB36B107E1F70E94CF020C94ED020C945D
:100090000000DF93CF93CDB7DEB727970FB6F89464
:1000A000DEBF0FBECDBFDE011196E0E6F0E087E0D7
:1000B00001900D928150E1F729813A814B815C8159
:1000C0006D817E818F8190E027960FB6F894DEBF18
:1000D0000FBECDBFCF91DF9108950E949601E0E061
:1000E000F8E383E080935700E895E058FF4F90E4F1
:1000F000E030F907B9F70E94A501FFCF80916A00AF
:10010000882339F080E190E061E00E94DC020E94E7
:10011000B1010895982F80538A3068F0815186305C
:1001200010F4865F0895892F8156863010F08FEF86
:100130000895892F87550895AC0120E001C02F5FF5
:10014000FA01E20FF11D80818823C9F7822F0895FB
:100150002F923F924F925F926F927F928F929F92D7
:10016000AF92BF92CF92DF92EF92FF920F931F93C5
:10017000DF93CF93CDB7DEB7CE5FD0400FB6F89404
:10018000DEBF0FBECDBF0E9496010FE51A821B8213
:100190001C821D8280E190E00E94D402882329F411
:1001A0000FE50E94A5010C9400000E94B601CC242A
:1001B000DD24760139ED232E312C2C0E3D1E26E058
:1001C000822E912C8C0E9D1E99E5A92EB12CAC0E81
:1001D000BD1E82E0482E512C4C0E5D1E3E0108943F
:1001E000611C711C1BA68DE50E947D0200E010E0E1
:1001F0000E948B02ECE2F0E0EC0FFD1FE00FF11F1C
:1002000080838D3011F4108205C00F5F1F4F0D32B7
:10021000110571F7C101BE01645D7F4F0E94581C3A
:10022000D401F10186E201900D928150E1F78BA596
:10023000882311F48BE577C0C401B501A3019201B5
:100240000E94001C823009F46DC0C401B501A301F5
:1002500092010E94001C882359F41982C701B6013B
:10026000A5010E94731DCA80DB80EC80FD805AC00E
:10027000C401B501A30192010E94001C813051F517
:10028000C701B601A5010E94731D6EA17FA129813E
:1002900098A5D401322F06C0F401E30FF11D80812F
:1002A0008D933F5F3917C0F3620F711D6B01EE2410
:1002B000FF24921B292F98A78A819B81AC81BD8145
:1002C000821B9109A109B1098A839B83AC83BD83F9
:1002D000198212C0C401B501A30192010E94001C41
:1002E000833089F41982C701B601A5010E94731DEC
:1002F000CA80DB80EC80FD80C401B501A3019201BE
:100300000E94001C0FC08CE50E947D0280E190E0FD
:1003100060E00E94DC0210926A000FE50E94A501D5
:100320000C9400008AE50E947D025CCF80916800F9
:10033000882329F4F89481E08093680008958091DF
:1003400069008F5F80936900089580916900882318
:1003500021F081508093690008957894109268008C
:1003600008950E94C1020E94CE0208950F9383E077
:1003700060E040E02AE000E00E94C0010F91089593
:100380000F93DF93CF9300D000D00F92CDB7DEB79D
:1003900089836A834B832C830D8382E08BB988E148
:1003A0008AB99AB1898184709B7F892B8AB99A8195
:1003B0008B819295990F990F907C880F880F880FE9
:1003C000892B806880BD20B58D8190E0837090700E
:1003D00044E0880F991F4A95E1F72F7C282B20BD18
:1003E00020B5898190E083709070880F991F297FD4
:1003F000282B20BD8A818823A1F18C81853009F4C6
:100400006CC0863058F48230E9F08230C0F083301E
:1004100009F460C0843009F065C017C08830C1F0AD
:10042000893038F4863009F45BC0873009F05AC04F
:100430003FC0893081F08A3009F054C00FC08FEF7F
:100440009FE750C08AE298E64DC084E09DE04AC034
:100450008FEC90E047C08AE890E044C084E490E0EC
:1004600041C08C81853021F1863070F4823091F169
:10047000833028F48823B1F08130A1F516C0833091
:1004800061F1843079F52CC08830D9F0893028F4B6
:10049000863089F0873031F511C08930A9F08A3073
:1004A00009F515C08FE19EE41DC08FE097E21AC0E8
:1004B00082EB9DEF17C08BE895E014C085EC92E0CD
:1004C00011C083E390E00EC082E290E00BC080E1B7
:1004D00090E008C08AE09AE105C082E896E002C098
:1004E00080E493E089B990BD0F900F900F900F902A
:1004F0000F90CF91DF910F910895DF93CF930F92DB
:10050000CDB7DEB789835D9BFECF89818CB90F9013
:10051000CF91DF9108955F9BFECF8CB1089520E0CD
:1005200004C05D9BFECFECB92F5FFC01E20FF11D13
:10053000E081EE23B1F70895DF93CF930F92CDB70B
:10054000DEB789835D9BFECF89818CB90F90CF91F7
:10055000DF910895DC015F9BFECF8CB18C9390E01E
:1005600008C09F5F5F9BFECF8CB1FD01E90FF11DBD
:100570008083FD01E90FF11D80818A3091F710829F
:10058000089581B5886181BD81B58B7F81BD81B5BD
:100590008D7F81BD81B58E7F81BD0895FFCF0E9483
:1005A000A80080E090E00895E199FECF9FBB8EBB4C
:1005B000E09A99278DB30895262FE199FECF9FBB2E
:1005C0008EBBE09A01970DB2021631F02DBB0FB62B
:0E05D000F894E29AE19A0FBE0895F894FFCFD6
:0805DE00000000000100000014
:103800000F931F93CF93DF93EC018B01BA01F90162
:103810008BA1813011F484E046C088A199A1009762
:1038200049F48AA190E0A0E0B0E080839183A28374
:10383000B3831AC02081318142815381A0E0B0E07E
:10384000281739074A075B0731F080839183A283E9
:10385000B38383E028C08AA1280F311D411D511D6B
:10386000208331834283538390E00DC0D801A20F9F
:10387000B11DFE01E90FF11D80818C939F5FFB015B
:1038800080818F5F8083FB0120818AA1203821F015
:10389000981761F782E007C0981711F480E003C021
:1038A000FB01908381E0DF91CF911F910F910895EB
:1038B0003F924F925F926F927F928F929F92AF92C0
:1038C000BF92CF92DF92EF92FF920F931F93DF93FD
:1038D000CF93CDB7DEB7A6970FB6F894DEBF0FBE75
:1038E000CDBF682E392E6B01FB0181810E948A00B9
:1038F000782EF60182810E948A00729440EF742231
:10390000782AF60180818A3311F490E013C01EA258
:103910007BA21AA219A21CA21DA2862D932D9C0186
:10392000D901FE01319686E201900D928150E1F7B6
:10393000C0C09F5F292F30E0F601E20FF31F8081A6
:103940008823B9F7872D90E00A968217930714F41D
:1039500021E013C01EA27BA21AA219A21CA21DA2C2
:10396000862D932D9C01D901FE01319686E20190AE
:103970000D928150E1F79DC02F5F90E001C09F5FE5
:10398000F601E90FF11D80818823C9F72917A0F3FB
:10399000F60183810E948A00F82EF60184810E943C
:1039A0008A00E82EF60185810E948A00082FF60120
:1039B00086810E948A005F2D5295507F40E03E2D07
:1039C00020E05A01A22AB32A90E0A82AB92A10E0DE
:1039D00034E0000F111F3A95E1F7A02AB12AF60151
:1039E00087810E948A00882EF60180850E948A00C5
:1039F000829420EF8222882AF601E70DF11D1081C2
:103A0000812F875F0E948A00982E812F865F0E94F7
:103A10008A00929490EF9922982A082D070D0A0D9A
:103A20000B0D76012E010894411C511C620110C03F
:103A3000F70187810E948A00182FF70180850E9474
:103A40008A001295107F182BF60111936F01010F58
:103A500082E090E0E80EF91E8C2D8419871540F362
:103A600003700195AE014F5F5F4F091589F01EA2EB
:103A70007BA2BAA2A9A28CA29DA2862D932D9C0105
:103A8000D901FA0186E201900D928150E1F711C04F
:103A900081E08EA37BA2BAA2A9A28CA29DA2262D10
:103AA000332DC901DC01FA0186E201900D928150AB
:103AB000E1F7862D932DA6960FB6F894DEBF0FBEC4
:103AC000CDBFCF91DF911F910F91FF90EF90DF90CD
:103AD000CF90BF90AF909F908F907F906F905F90AE
:103AE0004F903F900895EF92FF920F931F93CF93C3
:103AF000DF937B018C01EA010E949601E199FECFE0
:103B0000A70183E0F70180935700E89507B600FC12
:103B1000FDCFFA01A1E0BA0160587F4F8881398159
:103B200020E08901080F111D22960801A09357007B
:103B3000E89511243296E617F70781F785E0FA0138
:103B400080935700E89507B600FCFDCF81E1809394
:103B50005700E8950E94A501DF91CF911F910F9129
:063B6000FF90EF900895B4
:00000001FF
